:020000040800F2
:1000000028080020A1190008E7010008E9010008FC
:10001000ED010008F1010008F501000800000000F2
:10002000000000000000000000000000F9010008CE
:10003000FB01000800000000FD010008FF010008AE
:10004000BB190008BB190008BB19000835100008CF
:10005000BB190008BB190008BB190008BB19000830
:10006000BB190008BB190008BB190008BB19000820
:10007000BB190008BB190008BB190008BB19000810
:10008000BB190008BB190008BB190008BB19000800
:10009000BB190008BB190008BB190008BB190008F0
:1000A000BB190008BB190008BB190008BB190008E0
:1000B000BB190008CB0C00083B190008BB1900084D
:1000C000BB190008BB190008BB190008BB190008C0
:1000D000BB190008DB0B0008BB190008BB1900089E
:1000E000BB190008BB190008BB190008BB190008A0
:1000F000BB190008BB190008BB190008BB19000890
:10010000BB190008BB190008BB190008BB1900087F
:10011000BB190008BB190008BB190008BB1900086F
:10012000BB190008BB190008BB190008BB1900085F
:1001300000F002F800F03AF80AA090E8000C8244BF
:100140008344AAF10107DA4501D100F02FF8AFF29C
:10015000090EBAE80F0013F0010F18BFFB1A43F0A5
:10016000010318475440000074400000103A24BFB7
:1001700078C878C1FAD8520724BF30C830C144BF0C
:1001800004680C607047000000230024002500264E
:10019000103A28BF78C1FBD8520728BF30C148BFEA
:1001A0000B6070471FB51FBD10B510BD03F009FBF4
:1001B0001146FFF7F7FF00F008F803F027FB03B440
:1001C000FFF7F2FF03BC03F02BFB4FF4A06002F03B
:1001D00089F900F02BFC01F0C9FB01F03AFB00F0BB
:1001E000C0FE00BFFEE7704700BFFEE700BFFEE7AE
:1001F00000BFFEE700BFFEE77047704770477047DB
:100200000CB50020019000906B48006840F48030ED
:100210006949086000BF6848006800F40030009039
:100220000198401C0190009818B90198B0F5A06F92
:10023000F1D16148006810F4003F02D00120009025
:1002400001E0002000900098012842D15B4800683E
:1002500040F01000594908600846006820F003008B
:1002600008600846006840F0020008605248406894
:10027000514948600846406848600846406840F474
:10028000806048600846406820F47C10486008465A
:10029000406840F4E81048600846006840F080700C
:1002A000086000BF4448006810F0007FFAD0424860
:1002B000406820F00300404948600846406840F02C
:1002C0000200486000BF3C48406800F00C0008286D
:1002D000F9D10CBD10B5FFF793FF10BD10B536482E
:1002E000006840F00100344908600846406834491D
:1002F00008403149486008460068324908402E49A4
:1003000008600846006820F48020086008464068BD
:1003100020F4FE0048604FF41F008860FFF7DAFF0A
:100320004FF000602849086010BD10B50021002082
:100330000022214B5B6803F00C0121B1042906D097
:10034000082928D107E0214B214C236027E01F4BCF
:100350001F4C236023E0184B5B6803F47010164BAE
:100360005B6803F48032022303EB904022B9194BFF
:100370004343174C23600DE00F4B5B6813F4003FC1
:1003800004D0144B4343124C236003E00F4B434310
:100390000F4C236003E00D4B0D4C236000BF00BFEA
:1003A000054B5B68C3F303130B4CE15C084B1B6804
:1003B000CB40074C236010BD0010024000200240DB
:1003C0000000FFF8FFFFF6FE08ED00E000127A00E3
:1003D0000000002000093D000400002002461346F2
:1003E00010E010782A2805D01078202802DB107839
:1003F0007A2801DDFF20704710782C2801D1481E93
:10040000C1B2521C0029ECD1D01AC0B2F3E710B52A
:100410000246012000E050430B00A1F10104E1B2CB
:10042000F9D110BD2DE9F34F81B007463C460020BD
:100430000090834681460026804628E020782D28BB
:1004400002D148F00208641C20782C2802D02078C1
:100450002A2800D11CE020782E2803D148F001087A
:10046000641C09E02078392802DC2078302803DA7F
:100470004FF0000900260BE018F0010F02D0701CAD
:10048000C6B203E009F1010000F0FF09641CD5E7E2
:1004900000BF18F0020F00D07F1C00250EE0A9F16C
:1004A0000100401BC1B20A20FFF7B1FF795D30396E
:1004B000009A00FB01200090681CC5B24D45EEDBA0
:1004C000052E00DD05260298067000250EE0701E40
:1004D000401BC1B20A20FFF79AFF09F1010129442C
:1004E000795C303900FB01BB681CC5B2B542EEDB5C
:1004F00031460A20FFF78BFF009901FB00BA18F084
:10050000020F01D0CAF1000A5046BDE8FE8F2DE966
:10051000FC5F07468A464FF00008CDF804A0FEA114
:10052000019803F0C5F80646F079303800F0FF0B6B
:1005300003213046FFF752FF0546FF2D04D0701906
:100540006946FFF76FFF38704FF000096CE0F2A1C9
:10055000019803F0ADF8064600245CE0042000EBAF
:100560008400C1B23046FFF739FF0546FF2D09D0A0
:1005700070196946FFF756FFC1B208EB8802781C74
:10058000815400E049E0052000EB8400C1B2304610
:10059000FFF724FF0546FF2D0AD070196946FFF7C3
:1005A00041FFC1B208EB8802781C1044417000E0A2
:1005B00033E0062000EB8400C1B23046FFF70EFFA7
:1005C0000546FF2D0AD070196946FFF72BFF81B24F
:1005D00008EB8802781C1044418000E01DE00720F1
:1005E00000EB8400C1B23046FFF7F8FE0546FF2D50
:1005F0000AD070196946FFF715FFC1B208EB8802EF
:10060000781C1044017100E007E008F1010000F0DF
:10061000FF08601CC4B2042CA0DB00BF701C01905A
:1006200009F1010000F0FF09D94590DBBDE8FC9F0E
:10063000F8B505460F46BAA1384603F039F8064624
:1006400006213046FFF7CAFE0446FF2C05D03019BC
:100650006946FFF7E7FE85F84E0007213046FFF7B1
:10066000BDFE0446FF2C05D030196946FFF7DAFEBF
:1006700085F84F0009213046FFF7B0FE0446FF2CF5
:1006800005D030196946FFF7CDFEC5F86300F8BD07
:100690002DE9F84305468846A3A1404603F008F833
:1006A000064602213046FFF799FE0446FF2C05D08E
:1006B00030196946FFF7B6FE85F85C00002713E0A5
:1006C000F81CC1B23046FFF789FE0446FF2C08D063
:1006D00030196946FFF7A6FEC1B205F15000C155B9
:1006E00000E003E0781CC7B20C2FE9DB00BF0F214C
:1006F0003046FFF773FE0446FF2C05D030196946DB
:10070000FFF790FEA5F85D0010213046FFF766FE6A
:100710000446FF2C05D030196946FFF783FEA5F883
:100720005F0011213046FFF759FE0446FF2C05D02B
:1007300030196946FFF776FEA5F86100BDE8F88339
:100740002DE9F04F85B00446884679A1404602F075
:10075000AFFF074601213846FFF740FE0546FF2D53
:1007600023D0781904A9FFF75DFE82469DF810108A
:100770000A20FFF74CFEBAFBF0F642F21070B6FB0F
:10078000F0F0C1B2412001556420B6FBF0F06421C5
:10079000B0FBF1F201FB1201422001556420B6FBCF
:1007A000F0F100FB11614320015503213846FFF7AA
:1007B00015FE0546FF2D43D0781904A9FFF732FE38
:1007C00006469DF81000801CC1B20A20FFF71FFEEC
:1007D000B6FBF0F060649DF81000801CC1B20A20E6
:1007E000FFF715FEB6FBF0F100FB116A504603F06F
:1007F00063F981469DF81000C0F10500C1B20A20DE
:10080000FFF705FE009003F057F98346494603F0D1
:1008100067F98246484903F06DF8052102900A20E5
:10082000FFF7F5FD616C00FB01FA504603F044F957
:100830000190029902F0FCFF039003F01DF960643F
:1008400004213846FFF7CAFD0546FF2D02D0785D2A
:1008500084F8480005213846FFF7C0FD0546FF2D06
:1008600045D0781904A9FFF7DDFD06469DF8100074
:10087000801CC1B20A20FFF7CAFDB6FBF0F044F8B5
:10088000490F9DF81000801CC1B20A20FFF7BFFD80
:10089000B6FBF0F100FB116A504603F00DF98146FA
:1008A0009DF81000C0F10500C1B20A20FFF7AFFDAE
:1008B000009003F001F98346494603F011F982469E
:1008C0001D4903F017F8052102900A20FFF79FFD4C
:1008D000216800FB01FA504603F0EEF801900299FE
:1008E00002F0A6FF039003F0C7F844F84909062177
:1008F0003846FFF773FD0546FF2D02D0785D84F87A
:100900004D0009213846FFF769FD0546FF2D32D01D
:10091000781904A912E000002447504753560000FC
:1009200024475047474100002447504753410000A7
:100930004750524D4300000000007042FFF772FD27
:10094000064642F21070B6FBF0F0C1B240200155ED
:100950006420B6FBF0F06421B0FBF1F201FB120160
:100960003F2001556420B6FBF0F100FB116000F55B
:10097000FA60A4F83D0005B0BDE8F08FF8B5044674
:100980000D4628A1284602F093FE06460721304670
:10099000FFF724FD0746FF2F16D0F0196946FFF731
:1009A00041FDA4F867009DF8000003280CDA9DF8CB
:1009B0000000C0F10300C1B20A20FFF728FDB4F81F
:1009C00067104843A4F86700F8BD70B504460D46AB
:1009D00029462046FFF79BFD29462046FFF728FEC3
:1009E00029462046FFF754FE29462046FFF7A8FE79
:1009F00029462046FFF7C2FF70BD70B504460025AA
:100A000015701D70002009E01578265C35441570BE
:100A10001D78167835441D70451CA8B28842F3DB5A
:100A200070BD0000244750565447000010B56FF0C9
:100A3000040001F0A7FD2D4800682D49B0FBF1F03E
:100A40002C4908700846007800EB4001C1EBC0104B
:100A50004FF6FF7101EAC0002749088010BD01462A
:100A6000244A12784A434FF0E0235A6100229A61E7
:100A70001A46126942F001021A6100BF4FF0E022EB
:100A8000106910F0010F02D010F4803FF6D04FF043
:100A9000E022126922F001024FF0E0231A610022E5
:100AA0009A6170470146144A12884A434FF0E02386
:100AB0005A6100229A611A46126942F001021A61D3
:100AC00000BF4FF0E022106910F0010F02D010F4C7
:100AD000803FF6D04FF0E022126922F001024FF081
:100AE000E0231A6100229A61704700000000002094
:100AF00000127A00140000201600002010B586B005
:100B00000446012144F2040001F080FA524801F049
:100B1000E5FA4FF40070ADF8140003208DF81600CC
:100B200018208DF8170005A94C4800F0B9FF4FF4C4
:100B30008060ADF8140004208DF8170005A947481F
:100B400000F0AEFF25208DF8000001208DF8010097
:100B500000208DF8020001208DF80300684601F0A6
:100B6000C6FC01940020ADF80800ADF80A00ADF80D
:100B70000C00ADF810000C20ADF80E0001A93648AD
:100B800001F0EFFA012240F22551334801F081FBD8
:100B90000121314801F071FB06B010BD70B5002590
:100BA00000242F48008810F4004F15D02C480088EE
:100BB000C0F30D0500BF05E02A48005D2A4908552D
:100BC000601C84B2AC42F7DB00202549088026492E
:100BD00008552648FFF7F9FE70BD10B540F22551C3
:100BE0001D4801F03BFCB0B31B4801F0B7FBC4B299
:100BF0001B48008810F4004F2BD11948008810F4CE
:100C0000804F0CD00A2C03D000201549088020E02A
:100C10001348008840F400401149088019E00D2C69
:100C200006D10F48008840F480400D49088010E04C
:100C30000B480088C0F30D000A490C54084800888E
:100C4000401C07490880084600887F2801DD0020F5
:100C50000880FFF7A3FF10BD0038014000080140E5
:100C60001800002044000020C4000020440100209F
:100C70007FB505460C460121022001F0D4F9ADF8FC
:100C80000850ADF804400020ADF80A00ADF80600A9
:100C900001A9134801F068FD01221146104802F035
:100CA000DAF81D208DF8000002208DF801000020E8
:100CB0008DF8020001208DF80300684601F017FC52
:100CC0000121074802F0ACF87FBD10B501210448AE
:100CD00002F06FFB18B10121014802F07BFB10BD4F
:100CE0000004004008B503208DF8000000208DF8B6
:100CF00001008DF8020001208DF80300684601F024
:100D0000F6FB08BD0146CA1701EB92729210B1EBD7
:100D1000820212D1642091FBF0F200FB121050B954
:100D20004FF4C87091FBF0F200FB121008B90120DB
:100D300070470020FCE70120FAE70020F8E770B5D3
:100D400086B00020029003900490059000260024B5
:100D50000025C24806883604001D00880644C048A5
:100D60000660C048B6FBF0F4BF480088A04276D0C9
:100D7000BD490C8040F2B27510E02846FFF7C2FF73
:100D800040B1B4F5B77F02D3A4F5B77404E0681C92
:100D900085B206E0A4F26D14681C85B2B4F5B67F86
:100DA000EBD800BFB1488580002516E0AF498888A0
:100DB000FFF7A8FF30B1012D04D11D2C01D31D3C3C
:100DC00009E00CE0AA48405DA04203D8A848405D75
:100DD000241A00E003E0681C85B21C2CE6D200BF98
:100DE000681CA2498871601CC8710B46DA79997930
:100DF00098880C3300F0CFFA9C4BDA79997998886F
:100E000001AB00F0CEF99DF805009DF8041001EB50
:100E1000C10202EB011100EB8100944908819DF8A9
:100E2000060088729DF80700C8720B46DA79997936
:100E3000988802AB00F00FFB8C4BDA79997998888F
:100E40008C4B00F087FC894BDA79997998888A4B2A
:100E500000F0E9FB042202A9884802F03BFC81482B
:100E6000B6FBF0F100FB11644FF46160B4FBF0F0ED
:100E70007E4908704FF46160B4FBF0F100FB114053
:100E80003C21B0FBF1F0794948704FF46160B4FB4C
:100E9000F0F100FB11403C21B0FBF1F201FB12002C
:100EA00072498870002006B070BD2DE9F05F0646DB
:100EB0000F4690469946DDE90AAB002440F2B27035
:100EC000864203DB40F63300864202DD0120BDE8A6
:100ED000F09F40F2B2750AE02846FFF713FF10B109
:100EE0006748044401E067480444681C85B2B54281
:100EF000F2DB781EC7B2002510E05D48405D40F28D
:100F0000A321484304EBC0143046FFF7FBFE18B1A1
:100F1000012D01D153480444681C85B2BD42ECDB6D
:100F2000A8F1010040F2A321484304EBC014C9EB2F
:100F30004910C0EB092004EB0014CAEB0A1004EBC3
:100F400080045C4401214FF0C05001F06CF8012096
:100F500002F053FB204602F0CCFA02F0FDFA00202A
:100F6000B5E71CB5002401214FF0C05001F05BF83B
:100F7000042002F068FAA0F57A41FA3947D001203E
:100F800002F03BFB02F02AFA012000F0AFFF04E080
:100F9000601CC4B20A20FFF785FD412000F00FFF5E
:100FA0000028F5D0FA2C01DB01201CBD4FF4807025
:100FB00000F0B5FF012000F0B8FF02F0CDFA02F01A
:100FC000D3FA0121084602F06BFA02F0C5FA02F0EA
:100FD00074FA47F6FF7002F099FA02F0BDFA282081
:100FE000372113231522CDE90010052140F2DD70D1
:100FF000FFF75BFF02F06AFA4FF6FA21042002F0D5
:1010000016FA002002F0F9FA01F03EF80CE002F0C6
:10101000ABFA0121084602F043FA02F09DFA0020E3
:1010200002F0EBFA01F030F8FFF75CFEFFF787FE05
:101030000020BAE710B5012002F0BAFA08B1FFF7B4
:101040007EFE022002F0B4FA10B1022002F0C0FAD3
:10105000052002F0BDFA02F07FFA10BD182800400A
:10106000280000208051010024000020B801002049
:101070006E3D000821000020AE0100201C00002071
:101080000085E2018033E10102460E2A70D2DFE8DA
:1010900002F086071019222B353F49535D67727C99
:1010A000F748405C10F0080F01D100207047012084
:1010B000FCE7F348405C10F0040F01D10020F5E795
:1010C0000120F3E7EE48405C10F0020F01D1002050
:1010D000ECE70120EAE7EA48405C10F0010F01D19B
:1010E0000020E3E70120E1E7E54B481C185C10F025
:1010F000800F01D10020D9E70120D7E7E04B481C41
:10110000185C10F0400F01D10020CFE70120CDE79F
:10111000DB4B481C185C10F0200F01D10020C5E704
:101120000120C3E7D64B481C185C10F0100F01D10A
:101130000020BBE70120B9E7D14B481C185C10F038
:10114000080F01D10020B1E70120AFE7CC4B481CCC
:10115000185C10F0040F01D10020A7E70120A5E7DB
:10116000C74B481C185C10F0020F02D100209DE70D
:1011700015E001209AE7C24B481C185C10F0010FE3
:1011800001D1002092E7012090E7BD4B881C185C3C
:1011900010F0800F01D1002088E7012086E70020B1
:1011A00084E72DE9FF4F83B00C461E466421039867
:1011B000B0FBF1F0C0B201900398B0FBF1F201FB7B
:1011C00012080198132806D00198142803D0002093
:1011D00007B0BDE8F08FA8F1010000EB40001FFA56
:1011E00080F90198142803D109F596701FFA80F947
:1011F000A34909F10200085C00F0600A4FEA6A1A8C
:1012000009F10200085C00F01F0BBAF1010F03D1D5
:10121000ABF10100C7B202E00BF11E00C7B20A2C0D
:1012200007DA601E9749095C05980844401E85B29C
:1012300008E0A4F10A00944931F810100598084418
:10124000401E85B2022C09DD4FEAE87108EB91716E
:101250008910B8EB810101D1681C85B2BD423DDB2C
:10126000E81B85B20124012002900020009049462D
:101270000298FFF709FF10B94FF01D0A01E04FF087
:101280001E0A7F4911F80900C11700EB11714FEADE
:10129000211B1DE0A5EB0A0085B20298401CC0B2DC
:1012A00002905C4508D10098C043C0B200900098FD
:1012B00020B9601CC4B201E0601CC4B24946029867
:1012C000FFF7E2FE10B94FF01D0A01E04FF01E0AD1
:1012D0005545DFDA681CC0B2059051E0781BC7B2F3
:1012E000B8F1000F04D14FF063081320019003E020
:1012F000A8F1010000F0FF08A9F103001FFA80F92E
:101300000C245F4911F80900C11700EB11714FEA75
:10131000211BBBF1000F02D10C20029001E00D2037
:1013200002900020009049460298FFF7ADFE10B9E8
:101330004FF01D0A01E04FF01E0A1AE0A7EB0A0069
:10134000C7B20298401EC0B20290009808B9601E51
:10135000C4B25C4503D10098C043C0B20090494676
:101360000298FFF791FE10B94FF01D0A01E04FF00F
:101370001E0A5745E2DCAAEB0700401CC0B20590EC
:10138000019806F8010B06F8018B06F8014B059849
:10139000307001201CE72DE9F04104460D46164649
:1013A0006422B4FBF2F2D7B26422B4FBF2FC02FB7B
:1013B0001C40132F02DD00F16402D0B202464FEA56
:1013C000E07C00EB9C7C00EBAC010722B1FBF2FC63
:1013D00002FB1C1101EB060C6A1EDFF8B08018F846
:1013E00002200CEB02014FEAE07C00EB9C7C4FEA10
:1013F000AC0CB0EB8C0C02D1032D00DA491E072295
:10140000B1FBF2FC02FB1C121A70BDE8F08110B5B2
:101410000A46B0F5F86F07D3A0F5F8603C23B0FB9F
:10142000F3F403FB140109E0C0F5F8603C23B0FBC2
:10143000F3F403FB1403C3F13C03D9B2117010BDE4
:1014400010B5002304E011F8014B00F8014B5B1CC0
:101450009342F8D310BD2DE9FC4105460E461746D0
:101460001C460F220AA12046FFF7EAFF01AB3A46CD
:1014700031462846FFF795FE90B9BDE8FC81000093
:101480007A3D0008CF3F0008D83F0008DE3F000843
:10149000BCD7D7D3C4EAD5FDD4C2B3F5D2BB0000C4
:1014A0009DF805109DF8042002EBC20303EB021225
:1014B00001EB82006946FFF7AAFF9DF800000A21B0
:1014C00090FBF1F201FB120000EB4000B94900EB88
:1014D0000108022241462046FFF7B2FF9DF80000B6
:1014E0000C2190FBF1F201FB120000EB4000B2492D
:1014F00000EB010802224146A01CFFF7A1FF9DF866
:101500000600012805D10222ACA1A01DFFF798FF1B
:101510000AE09DF80600401E00EB4000A84A811832
:101520000222A01DFFF78CFF9DF807000A2810DD9E
:101530009DF807000A2190FBF1F000EB4000A14963
:1015400000EB01080222414604F10A00FFF778FF90
:1015500005E002229CA104F10A00FFF771FF9DF84B
:101560000700401E0A2190FBF1F201FB120000EB84
:101570004000934900EB01080222414604F10C00AF
:10158000FFF75EFF00BF78E72DE9F04104460D4606
:10159000B4F5FA6F03D340F60200844202D900206A
:1015A000BDE8F0810DB10C2D01DD0020F8E7681ECB
:1015B0004006010E0F2A01DB481CC1B208464FEA63
:1015C000E17C01EB5C7C4FEAEC08A4F5FA6C0CEBD7
:1015D0004C0CC444DFF8F48118F80C604FEAE17C4D
:1015E00001EB5C7C4FEAEC0CA1EBCC0C06FA0CFC9A
:1015F0000CF080077648405C187097B1012905D03F
:101600000B2903D0122901D0152907D140F2FC7013
:10161000844203D21878401C187002E01878401EEB
:1016200018700120BCE72DE9F84F80460E4614469D
:101630001D466B46224631464046FFF7A5FF10B9CE
:101640000020BDE8F88F701E4006070E0F2C01DB4E
:10165000781CC7B29DF8000084420ED109225DA11A
:101660002846FFF7EDFE07EB87005D4A811804224C
:10167000281DFFF7E5FE0120E3E7092259A12846CE
:10168000FFF7DEFE9DF8000084420CDA07EB8700CE
:10169000534A81180422A81CFFF7D2FE9DF80000CF
:1016A000001BC4B248E0781C182190FBF1F201FB4A
:1016B000120000EB80004A4900EB010A0422514667
:1016C000A81CFFF7BDFE0F2C0ADA6B460F2231462D
:1016D0004046FFF759FF9DF80000001BC4B22BE005
:1016E000701E434911F80090022E13D118F0030F19
:1016F00010D16420B8FBF0F100FB118030B94FF439
:10170000C870B8FBF0F100FB118018B909F10100B5
:1017100000F0FF09701CC0B206460D2800D101265A
:101720006B46012231464046FFF72EFFA9EB04002D
:101730009DF800100844C4B20A2094FBF0F0303049
:10174000A8710A2094FBF0F100FB11403030E871E1
:10175000012076E72DE9FC4105460E4617461C465A
:1017600001AB3A4631462846FFF71BFD08B9BDE8F4
:10177000FC819DF805209DF8041001EBC10303EBEB
:10178000011102EB81006946FFF741FE9DF8000060
:101790000C2190FBF1F201FB120000EB4000154917
:1017A00000EB0108032241462046FFF749FE00BF37
:1017B000DDE70000EA3F000808400008D5FD000012
:1017C0002C40000850400008B3F500005C400008C1
:1017D000F5400008BDF1CCECD0A1BAAE000000008D
:1017E0000D410008C0EBD0A1BAAE3F3F00000000A1
:1017F00085410008914100081FB50121042000F037
:1018000012FC0920ADF8040048F69F40ADF8000036
:101810000020ADF80600ADF8020069464F4800F020
:10182000A3FF002201214D4801F015FB1E208DF879
:101830000C0002208DF80D0001208DF80E008DF8AF
:101840000F0003A800F053FE0021444801F0E8FA1D
:101850001FBD08B50121082000F0D8FB48208DF8F5
:1018600003000220ADF8000003208DF80200694655
:101870003B4800F015F910208DF803000420ADF866
:10188000000003208DF802006946354800F008F991
:10189000FFF7B2FF08BD10B5002201212F4801F06B
:1018A000DAFA00212D4801F0BBFA10BD10B5012273
:1018B00011462A4801F0CFFA0121284801F0B0FA78
:1018C00010BD10B50221264800F07BF9B0B9FFF732
:1018D000EDFF11E02348008864280DDBFFF7DBFFF4
:1018E000002020490880012204211D4800F087F9CA
:1018F00000201D49086000E0ECE700BF10BD10B5F6
:101900000221174800F05DF9B0B9FFF7CFFF11E0F1
:101910001448008864280DDBFFF7BDFF0020114943
:101920000880002204210E4800F069F900200E49C9
:10193000086000E0ECE700BF10BD10B501210748CA
:1019400001F037FD40B10121044801F043FD054895
:101950000088401C0349088010BD000000080040BA
:10196000000C01402C0000209801224208B5012102
:10197000102000F04BFB10208DF803004020ADF844
:10198000000003208DF802006946044800F088F842
:101990004021024800F02FF908BD0000001001406E
:1019A0000948804709480047FEE7FEE7FEE7FEE7F3
:1019B000FEE7FEE7FEE7FEE7FEE7FEE7044805492F
:1019C000054A064B70470000DD020008310100089F
:1019D00028020020280800202804002028040020D5
:1019E00010B50446CA48844208D10121042000F001
:1019F00027FB0021042000F023FB46E0C548844279
:101A000008D10121082000F01BFB0021082000F074
:101A100017FB3AE0C048844208D10121102000F0B1
:101A20000FFB0021102000F00BFB2EE0BB4884428E
:101A300008D10121202000F003FB0021202000F02C
:101A4000FFFA22E0B648844208D10121402000F08C
:101A5000F7FA0021402000F0F3FA16E0B148844282
:101A600008D10121802000F0EBFA0021802000F055
:101A7000E7FA0AE0AC48844207D10121801500F062
:101A8000DFFA0021A01500F0DBFA10BD10B501212E
:101A9000084600F0D5FA0021012000F0D1FA10BD6F
:101AA0002DE9F041024600250026002000230024F5
:101AB000002791F803C00CF00F0591F803C01CF04B
:101AC000100F03D091F802C04CEA050591F800C050
:101AD000BCF1000F31D0146800202BE04FF0010C56
:101AE0000CFA00F3B1F800C00CEA03069E4220D1C4
:101AF00083004FF00F0C0CFA03F7BC4305FA03FC0C
:101B00004CEA040491F803C0BCF1280F06D14FF051
:101B1000010C0CFA00FCC2F814C00AE091F803C0F2
:101B2000BCF1480F05D14FF0010C0CFA00FCC2F8D3
:101B300010C0401C0828D1D31460B1F800C0BCF11B
:101B4000FF0F34DD546800202EE000F1080C4FF048
:101B5000010808FA0CF3B1F800C00CEA03069E4233
:101B600021D183004FF00F0C0CFA03F7BC4305FAA8
:101B700003FC4CEA040491F803C0BCF1280F05D122
:101B800000F1080C08FA0CF8C2F8148091F803C0B0
:101B9000BCF1480F07D100F1080C4FF0010808FA1A
:101BA0000CF8C2F81080401C0828CED35460BDE861
:101BB000F0814FF6FF710180022181700421C17014
:101BC00070470246002093680B4201D0012000E0DC
:101BD000002070470146886880B2704702460020A6
:101BE000D3680B4201D0012000E00020704701467D
:101BF000C86880B2704701617047416170470AB19F
:101C0000016100E041617047C16070474FF480326C
:101C10000A438261816182618269826970470246FA
:101C20000020424B18684FF68073184040EA0210BB
:101C300008433E4B186070473D49C8617047F0B596
:101C40000A46002300240021002500F00046B6F1DA
:101C5000004F02D1354EF16901E0344E7168C0F396
:101C6000034583B200F44016B6F5401F08D121F0B9
:101C700070612E4E766826F070662C4F7E6012E002
:101C800000F48016B6F5801F06D1032606FA05F487
:101C9000A14341F0706106E0460D360103FA06F6F5
:101CA000B14341F0706122B1460D360103FA06F6E8
:101CB000314300F00046B6F1004F02D11B4EF161F6
:101CC00001E01A4E7160F0BD30B500228B071C0F89
:101CD0000F2303FA04F2154B08338C1053F8243009
:101CE0009343124C08348D1044F8253023468C1051
:101CF00053F824308C07240F00FA04F423430B4CD0
:101D000008348D1044F8253030BD0A49086070470A
:101D100000080140000C0140001001400014014087
:101D200000180140001C014000200140000001405B
:101D300000002042DC002042DD48006840F0010045
:101D4000DB49086008464068DA490840D8494860DD
:101D500008460068D8490840D54908600846006828
:101D600020F4802008600846406820F4FE004860A7
:101D70004FF41F0088607047CD49096821F4803115
:101D8000CB4A11601146096821F480211160B0F539
:101D9000803F03D0B0F5802F0ED106E0C44909681A
:101DA00041F48031C24A116007E0C149096841F439
:101DB000A021BF4A116000E000BF00BF704710B50E
:101DC00001460022002300204A11012A02D1B84C0A
:101DD000236806E0022A02D1B54C236A01E0B44C24
:101DE000636A01F01F02012494401C4201D00120CB
:101DF00000E0002010BD38B5002000900024002530
:101E000000BF3120FFF7DBFF05460098401C009023
:101E10000098B0F5A06F01D0002DF2D03120FFF76F
:101E2000CEFF08B1012400E00024204638BD014661
:101E300000209F4A106820F0F80040EAC1001060BE
:101E400070479E490860704702460020984B5868CA
:101E500020F47C1042EA01031843954B5860704708
:101E600096490866704701460020914A506820F064
:101E700003000843506070478D48406800F00C0034
:101E80007047014600208A4A506820F0F00008435D
:101E90005060704701460020854A506820F4E06099
:101EA00008435060704701460020814A506820F482
:101EB000605040EAC1005060704729B17C4A527AB4
:101EC00002437B4B5A7204E0794A527A8243784B40
:101ED0005A7270477A490860704701460020744A78
:101EE000506820F440400843506070470021754A14
:101EF00011706F4A82F82010012802D0042808D1FE
:101F000003E001216F4A117004E005216D4A117050
:101F100000E000BF00BF70476B490860704764492C
:101F2000096A0143624A116270476749443908608F
:101F3000704730B500210022002400235C4D6D68FD
:101F400005F00C0121B1042905D0082923D105E0B1
:101F50005E4D056022E05D4D05601FE0544D6D68EB
:101F600005F47012524D6D6805F48034022505EBBE
:101F700092421CB9564D554305600BE04C4D6D68BF
:101F800015F4003F03D0524D5543056002E04F4D1C
:101F90005543056002E04D4D056000BF00BF444D54
:101FA0006D6805F0F00109094A4D6B5C0568DD407C
:101FB00045603F4D6D6805F4E061090A454D6B5C75
:101FC0004568DD4085603A4D6D6805F46051C90A89
:101FD000404D6B5C4568DD40C560354D6D6805F46E
:101FE0004041890B3C4D6B5CC568B5FBF3F5056161
:101FF00030BD29B12E4A526902432D4B5A6104E08B
:102000002B4A526982432A4B5A61704729B1284AA8
:1020100092690243264B9A6104E0254A9269824301
:10202000234B9A61704729B1214AD2690243204B60
:10203000DA6104E01E4AD26982431D4BDA617047BF
:1020400029B11B4AD2680243194BDA6004E0184AEE
:10205000D2688243164BDA60704729B1144A12697C
:102060000243134B1A6104E0114A12698243104B78
:102070001A61704714494039086070470F49C864B5
:1020800070470B49C87170470948406A40F080703A
:1020900007494862704701460020054A92680A4293
:1020A00001D0012000E0002070470149887270478C
:1020B000001002400000FFF8FFFFF6FE0000424261
:1020C000D8004242201002408004424200127A00AE
:1020D00000093D002E0000203E00002010B50446FF
:1020E000FB48844209D101218803FFF7A9FF0021A1
:1020F0004FF48040FFF7A4FF32E0F648844209D154
:1021000001214804FFF7A9FF00214FF40030FFF739
:10211000A4FF25E0F048844209D101218804FFF79B
:102120009CFF00214FF48020FFF797FF18E0EB4859
:10213000844209D10121C804FFF78FFF00214FF429
:102140000020FFF78AFF0BE0E548844208D1012117
:102150000805FFF782FF00214FF48010FFF77DFF95
:1021600010BD2DE9F04786B005460E460024A24674
:1021700000BFA1460027B08900B100BF2F462C8ABE
:102180004CF6FF700440F08804432C82AC894EF674
:10219000F3100440B088318908437189084304432F
:1021A000AC81AC8A4FF6FF400440B0890443AC8256
:1021B00001A8FFF7BEFEC648874202D1DDF810A095
:1021C00001E0DDF80CA0A88910F4004F08D00AEB5C
:1021D000CA0000EB0A1031684900B0FBF1F807E0D3
:1021E0000AEBCA0000EB0A1031688900B0FBF1F875
:1021F0006420B8FBF0F004012009642101FB108980
:10220000A88910F4004F08D0322000EBC900B0FBC1
:10221000F1F000F00700044308E0322000EB091061
:102220006421B0FBF1F000F00F0004432C8106B0F4
:10223000BDE8F0874FF41651016000218180C18014
:1022400001810C21418100218181704710B5024636
:102250000020108A4FF2FF0318400B884C8823435C
:102260008C882343CC8823431843108210BD00215F
:10227000018041808180C180704721B1828942F410
:102280000052828104E082894DF6FF731A408281F8
:102290007047F0B503460024002600250020A1F574
:1022A00010676A3F00D100BF1846C1F3421401F025
:1022B0001F06012707FA06F5012C01D10C3004E0B6
:1022C000022C01D1103000E014301AB107682F43FE
:1022D000076002E00768AF430760F0BD1AB1838A68
:1022E0000B43838202E0838A8B4383827047028A96
:1022F0004FF6F0731A400282028A0A430282704744
:1023000082894FF2FF731A40828182890A43828157
:10231000704721B1828942F00202828104E0828901
:102320004FF6FD731A4082817047028A4FF6DF73C1
:102330001A400282028A0A430282704721B1028A4D
:1023400042F48042028204E0028A4BF6FF731A4094
:1023500002827047C1F30802828070470146888874
:10236000C0F308007047818941F001018181704705
:10237000028BD2B20283028B42EA012202837047AF
:10238000028B02F47F420283028B0A43028370476E
:1023900021B1828A42F02002828204E0828A4FF6D2
:1023A000DF731A408282704721B1828A42F01002A4
:1023B000828204E0828A4FF6EF731A40828270476D
:1023C00021B1828A42F00802828204E0828A4FF6BA
:1023D000F7731A408282704721B1828942F4004229
:1023E000828103E08289C2F30E028281704721B1AB
:1023F000828A42F40062828204E0828A4FF2FF7392
:102400001A4082827047828A4FF6FB731A4082829A
:10241000828A0A438282704721B1828A42F0020294
:10242000828204E0828A4FF6FD731A4082827047EE
:1024300002460020B1F5007F00D100BF13880B4297
:1024400001D0012000E00020704701F40072B2F5D5
:10245000007F00D100BFCA430280704770B50246BA
:102460000024002300250020A1F510666A3E00D15B
:1024700000BFC1F3421501F01F03012606FA03F362
:10248000012D02D19689334006E0022D02D1168A31
:10249000334001E0968A33400C12012606FA04F418
:1024A0001688344013B10CB1012000E0002070BD4B
:1024B00010B500220023A1F510646A3C00D100BFD2
:1024C0000A1201249440A3B2DC43048010BD000032
:1024D000003801400044004000480040004C0040EB
:1024E0000050004031490143314A1160704770B5D6
:1024F000002100230F22C4780CB32D4C246804F46F
:10250000E064C4F5E064210AC1F10403CA404478E0
:1025100004FA03F18478144021430901254C06781C
:10252000A155047804F01F050124AC4005786D1115
:102530004FF0E02606EB8505C5F8004109E0047878
:1025400004F01F050124AC401B4D0678761145F8B8
:10255000264070BD194A0A400243154B1B1F1A60E2
:10256000704739B1124A121D12680243104B1B1DED
:102570001A6006E00E4A121D126882430C4B1B1DA6
:102580001A607047042808D14FF0E021096941F032
:1025900004014FF0E022116107E04FF0E0210969EA
:1025A00021F004014FF0E022116170470000FA05AC
:1025B0000CED00E000E400E080E100E080FFFF1FA0
:1025C00010B50446FE48844208D10121C014FFF72B
:1025D00037FD0021E014FFF733FDC4E0B4F1804F74
:1025E00008D101210846FFF738FD00210120FFF73F
:1025F00034FDB8E0F348844208D101210220FFF7FE
:102600002CFD00210220FFF728FDACE0EE488442BB
:1026100008D101210420FFF720FD00210420FFF74D
:102620001CFDA0E0E948844208D101210820FFF701
:1026300014FD00210820FFF710FD94E0E4488442D7
:1026400008D101211020FFF708FD00211020FFF71D
:1026500004FD88E0DF48844208D101212020FFF7F3
:10266000FCFC00212020FFF7F8FC7CE0DA488442E3
:1026700008D101214014FFF7E3FC00216014FFF7AB
:10268000DFFC70E0D548844209D10121C804FFF77E
:10269000D7FC00214FF40020FFF7D2FC63E0D048C4
:1026A000844209D101210805FFF7CAFC00214FF43B
:1026B0008010FFF7C5FC56E0CA48844209D10121C9
:1026C0004805FFF7BDFC00214FF40010FFF7B8FCF0
:1026D00049E0C548844208D101214020FFF7BDFCF4
:1026E00000214020FFF7B9FC3DE0C048844208D1FA
:1026F00001218020FFF7B1FC00218020FFF7ADFC15
:1027000031E0BB48844208D101218015FFF7A5FCC8
:102710000021A015FFF7A1FC25E0B648844209D1AD
:1027200001210804FFF78CFC00214FF48030FFF7F3
:1027300087FC18E0B048844209D101214804FFF722
:102740007FFC00214FF40030FFF77AFC0BE0AB4830
:10275000844208D101218804FFF772FC00214FF464
:102760008020FFF76DFC10BD00220288944B984238
:102770000ED0994B98420BD0B0F1804F08D0914BBE
:10278000984205D0904B984202D0904B984204D189
:102790004FF68F731A404B881A438D4B984207D0DF
:1027A0008C4B984204D04FF6FF431A40CB881A4313
:1027B00002808B8883850B880385814B98420BD0E0
:1027C000854B984208D08B4B984205D08A4B984253
:1027D00002D08A4B984201D10B7A0386012383826F
:1027E000704770B5002400220023058C4FF6FE765A
:1027F00035400584028C8388048B4FF68F752C40FE
:10280000B51E2C400D882C43751E2A400D892A4385
:102810004D882A436A4DA8420BD06F4DA84208D07C
:10282000744DA84205D0744DA84202D0734DA84201
:1028300013D14FF6F7752A404D892A434FF6FB75A1
:102840002A408D882A434FF6FF652B404FF6FF55EF
:102850002B408D892B43CD892B4383800483CD88E6
:102860008586028470BD70B5002400220023058C8B
:102870004FF6EF7635400584028C8388048B48F64A
:10288000FF752C404FF6FF452C400D884FF6FF7624
:1028900006EA05252C434FF6DF752A400D8906EA26
:1028A00005152A434D8806EA05152A43444DA842DA
:1028B00002D0494DA8421DD14FF67F752A404D895F
:1028C0004FF6FF7606EA05152A434FF6BF752A40F4
:1028D0008D8806EA05152A434FF6FF352B404FF247
:1028E000FF752B408D8906EA85052B43CD8906EAC5
:1028F00085052B4383800483CD880587028470BDC2
:1029000070B5002400220023058C4FF6FF66354089
:102910000584028C8388848B4FF68F752C404FF68C
:10292000FC752C400D882C434FF6FF552A400D892D
:102930004FF6FF7606EA05252A434D8806EA052567
:102940002A431F4DA84202D0234DA8421DD14FF269
:10295000FF752A404D894FF6FF7606EA05252A4382
:102960004FF6FF352A408D8806EA05252A434EF6A4
:10297000FF752B404DF6FF752B408D8906EA051536
:102980002B43CD8906EA05152B4383808483CD88AC
:102990008587028470BD70B5002200230024058C59
:1029A0004EF6FF7635400584038C8488828B48F68A
:1029B000FF752A404FF6FF452A400D8820E00000B1
:1029C000002C01400004004000080040000C0040C2
:1029D000001000400014004000340140004C014051
:1029E000005001400054014000180040001C00400D
:1029F00000200040004001400044014000480140E8
:102A00004FF6FF7606EA05252A434DF6FF752B4063
:102A10000D8906EA05352B434D8806EA05352B431B
:102A2000FA4DA84202D0FA4DA84208D14BF6FF75E4
:102A30002C408D894FF6FF7606EA85152C4384805D
:102A40008283CD88A0F84050038470BD828B4FF202
:102A5000FF331A408283828B4FF6FF7303EA012310
:102A60001A4382837047F0B50C46154600220021B8
:102A70000026078C4EF6FF7C07EA0C070784828B42
:102A8000018C4FF6FF7707EA043640F6FF473A40DD
:102A90004FF6FF7707EA05273A434FF6FF7707EA35
:102AA00003373A43D94FB8420ED0D94FB8420BD072
:102AB000B0F1804F08D0D74FB84205D0D64FB842BA
:102AC00002D0D64FB84206D14DF6FF77394046F4D2
:102AD0008057394305E047F6FF57394044F48057A3
:102AE000394382830184F0BD828B4FF6F3731A4021
:102AF0008283828B0A4382837047F0B50C46154669
:102B0000002200210026078C4FF6FF6C07EA0C0715
:102B10000784828B018C4FF6FF7707EA04264FF675
:102B20000C773A404FF6FF7707EA03172F433A43F3
:102B3000B64FB8420ED0B64FB8420BD0B0F1804F6E
:102B400008D0B44FB84205D0B34FB84202D0B34F0B
:102B5000B84206D14FF6FF57394046F480773943E3
:102B600005E04FF2FF57394044F4807739438283C0
:102B70000184F0BD028B4FF2FF331A400283028BB7
:102B80004FF6FF7303EA01231A4302837047F0B53F
:102B90000C461546002200210026078C4FF6EF7CDC
:102BA00007EA0C070784028B018C4FF6FF7707EAD0
:102BB000041640F6FF473A404FF6FF7707EA03371F
:102BC0003A434FF6FF7707EA05273A438F4FB8425B
:102BD0000ED08F4FB8420BD0B0F1804F08D08D4F40
:102BE000B84205D08C4FB84202D08C4FB84206D1C3
:102BF0004FF6DF77394046F01007394305E04FF6CE
:102C00005F77394044F01007394302830184F0BDF7
:102C1000028B4FF6F3731A400283028B0A4302833E
:102C20007047F0B50C46154600220021068C4FF681
:102C3000FE773E400684028B018C4FF60C763240C4
:102C40007E1C06EA03162E433243704EB0420ED06D
:102C50006F4EB0420BD0B0F1804F08D06D4EB042F5
:102C600005D06D4EB04202D06C4EB04206D14FF648
:102C7000FD76314044F00106314305E04FF6F5762C
:102C8000314044F00106314302830184F0BD70B548
:102C900005460C465D4885420ED05D4885420BD006
:102CA000B5F1804F08D05B48854205D05A4885422F
:102CB00002D05A48854200D100E000BF208850B9B8
:102CC0002389A28861882846FFF7ABFFE188284660
:102CD000FFF79EFF25E0208804280AD12389A288D7
:102CE00061882846FFF753FFE1882846FFF742FF37
:102CF00017E0208808280AD12389A28861882846FD
:102D0000FFF7FBFEE1882846FFF7EEFE09E0238986
:102D1000A28861882846FFF7A6FEE1882846FFF7CB
:102D200095FE70BD2DE9F04105460C4600260127B1
:102D3000608808B9022600E00026A088012801D199
:102D4000022700E001272088A0B92389A288618892
:102D50002846FFF766FFE1882846FFF759FF2389D9
:102D60003A4631462846FFF712FFE1882846FFF72A
:102D700001FF13E02389A28861882846FFF707FF37
:102D8000E1882846FFF7F6FE23893A463146284671
:102D9000FFF747FFE1882846FFF73AFFBDE8F081DB
:102DA0000A884B881A438B881A43CB881A430B89AD
:102DB0001A434B891A438B891A43A0F84420704761
:102DC0004FF6FF71818000210180C1804180017236
:102DD00070470021018041808180C1800181418153
:102DE0008181C18170470021018041800121818062
:102DF0000021C180018170470021018041808180D4
:102E0000C18001814181818170470000002C014017
:102E1000003401400004004000080040000C004065
:102E200021B1028842F00102028004E002884FF6DC
:102E3000FE731A400280704731B1B0F8442042F46A
:102E40000042A0F8442005E0B0F84420C2F30E028E
:102E5000A0F8442070471AB183890B43838102E0B4
:102E600083898B43838170478182704741EA0203E3
:102E7000A0F8483070471AB183890B43838102E080
:102E800083898B438381704701894FF6F872114023
:102E9000018170470A46002101894FF68F7319405E
:102EA00011430181704730B504460D46294620463E
:102EB000FFF7F0FF208940F00700208130BD2DE9A9
:102EC000F04104460D4616461F46602D06D13B468E
:102ED000012231462046FFF75AFE05E03B4601221B
:102EE00031462046FFF79DFE29462046FFF7D2FFD8
:102EF000208940F007002081BDE8F08130B50C4604
:102F000000210189C9B24FF6FF7505EA0325154373
:102F100025432943018130BD2DE9F04105460E4688
:102F200017469846002443463A4631462846FFF75E
:102F3000E5FF2C894FF6F870044044F007044FF683
:102F40008F70044044F070042C81BDE8F081F0B52E
:102F500004460D4616461F463B4632462946204645
:102F6000FFF7CCFF208940F480402081F0BD01852F
:102F7000828270470A46002101884FF68F731940FC
:102F8000114301807047F0B50C4615461E460021DE
:102F9000002200230189028B038C4FF6F877394019
:102FA00021434FF6FC473A4040F201173A434FF6AF
:102FB000DD773B404FF6FF7707EA06172F433B4389
:102FC000018102830384F0BD0A460021018B4FF684
:102FD0008F7319401143018370470A460021018B0A
:102FE00048F6FF7319404FF6FF7303EA02231943B3
:102FF000018370470A460021818B4FF68F73194079
:103000001143818370470A460021818B48F6FF7384
:1030100019404FF6FF7303EA022319438183704777
:1030200021B1028842F08002028004E002884FF65B
:103030007F731A400280704721B1828842F00402F7
:10304000828004E082884FF6FB731A4082807047CA
:1030500021B1828842F00802828004E082884FF623
:10306000F7731A408280704721B1828842F00102D2
:10307000828004E082884FF6FE731A408280704797
:103080000A460021018B4FF6F77319401143018363
:1030900070470A460021018B4FF2FF7319404FF62B
:1030A000FF7303EA02231943018370470A46002194
:1030B000818B4FF6F77319401143818370470A469D
:1030C0000021818B4FF2FF7319404FF6FF7303EA23
:1030D00002231943818370470A460021018B4FF672
:1030E000FB7319401143018370470A460021018B8D
:1030F0004FF6FF3319404FF6FF7303EA02231943DB
:10310000018370470A460021818B4FF6FB731940FB
:103110001143818370470A460021818B4FF6FF33AC
:1031200019404FF6FF7303EA022319438183704766
:103130000A460021018B4FF67F731940114301832A
:1031400070470A460021018BC1F30E014FF6FF7351
:1031500003EA02231943018370470A460021818B49
:103160004FF67F7319401143818370470A4600214F
:10317000818BC1F30E014FF6FF7303EA022319435B
:10318000818370470A460021018C4FF6FD73194078
:103190001143018470470A460021018C4FF6F773F2
:1031A00019401143018470470A460021018C4FF6F3
:1031B000DF7319404FF6FF7303EA021319430184CA
:1031C00070470A460021018C4FF67F7319404FF675
:1031D000FF7303EA02131943018470470A46002172
:1031E000018C4FF6FF5319404FF6FF7303EA022399
:1031F0001943018470470A460021018C4FF2FF7386
:1032000019404FF6FF7303EA022319430184704704
:103210000A460021018C4DF6FF7319404FF6FF73EB
:1032200003EA023319430184704730B500230124B7
:103230008C40A3B2048C9C430484048C02FA01F5F4
:10324000ADB22C43048430BD30B5002304248C403F
:10325000A3B2048C9C430484048C02FA01F5ADB241
:103260002C43048430BD70B503460020002418466A
:10327000183001258D40ACB21D8CA5431D8409B1C9
:10328000082909D100EB6100056825F0700505608B
:103290000568154305600EE00D1FC5F34E05284473
:1032A000056825F4E045056005684FF6FF7606EAF7
:1032B00002263543056070BD21B1028842F002024A
:1032C000028004E002884FF6FD731A4002807047C6
:1032D00021B1028842F00402028004E002884FF625
:1032E000FB731A400280704721B1828842F080024D
:1032F000828004E082884FF67F731A408280704794
:1033000002884FF6F7731A40028002880A4302804F
:10331000704782884FF68F731A40828082880A43F2
:103320008280704702894FF6F8731A400281028941
:103330000A430281704702894FF67F731A40028167
:1033400002890A43028170478184704781857047F2
:10335000818670470187704781877047A0F84010C9
:10336000704702884FF6FF431A40028002880A43E2
:10337000028070470146888E70470146088F70476B
:103380000146888F70470146B1F8400070470146FA
:10339000888C70470146088D704702460020138ACA
:1033A0000B4201D0012000E000207047CA43028296
:1033B000704730B50246002000230024158A05EA34
:1033C0000103958905EA010413B10CB1012000E065
:1033D000002030BDCA4302827047000010B50120B2
:1033E000FEF748FE0020FEF745FE10BD2A490860A2
:1033F00070472949091F08607047274984310860D0
:10340000704701460020254A10884FF67F42104041
:103410000843224A10807047014600201F4A108846
:103420004FF68072104008431C4A1080704708B560
:1034300000220092194A2C3A0092009A024400920B
:10344000009A116008BD08B501460020009013489D
:103450002C3800900098084400900098008808BD1F
:103460000D489C300068C0B270470C480830008896
:1034700040F0010009490831088070470648A03033
:103480000068C0B2704705480830008840F002006C
:10349000024908310880704704860D422C6C0040B8
:1034A00029B14F4A128802434D4B1A8004E04C4A1E
:1034B000128882434A4B1A8070474948001D008891
:1034C00040F010004649091D088070474448001D1F
:1034D00000884FF6EF7108404149091D0880704788
:1034E00000213F481C300188001F008841EA00404D
:1034F000704700B50246FFF7E0FF100C384918315D
:103500000880091D0A80FFF7E1FF00BD00B50246F3
:10351000FFF7D3FFC2F30340314908310880091D8A
:103520000A80FFF7D3FF00BD00B50246FFF7C5FFD5
:10353000100C2B4920310880091D0A80FFF7C6FFB7
:1035400000BD00202649103109880907080B2449CD
:10355000143109880843704700BF2148001D0088C6
:1035600010F0200FF9D070471D48001D00884FF65D
:10357000F77108401A49091D088000BF1848001D4E
:10358000008810F0080FF9D0704701460020144A57
:10359000121D12880A4201D0012000E0002070476D
:1035A0000F49091D098881430D4A121D118070477A
:1035B000014600200A4A121D12880A40D0B2084A69
:1035C00012880A4202D008B1012000E000207047B2
:1035D0000349091D09888143014A121D1180704762
:1035E0000028004010B501210807FEF736FD002134
:1035F0004FF08050FEF731FD10BD29490862704739
:1036000027490861704701460020264A106820F0CB
:10361000E00008431060704723490860704710B508
:10362000024600201F4B186820F00300104318606A
:103630001E4B1B6843F004031C4C2360012901D17D
:1036400030BF00E020BF194B1B6823F00403174C68
:10365000236010BD1348006840F004001149086061
:103660000846006840F0020008601048006840F01A
:1036700004000E49086000BF00BF30BF704701461C
:103680000020084A52680A4201D0012000E00020D0
:1036900070470449096841EA8001024A1160704795
:1036A00000000E4200700040A0000E4210ED00E04D
:1036B00030B505460B462A4613F8014B12F8010BAC
:1036C00008B1A042F8D01CB1002802D06D1CF1E76F
:1036D000284630BD10B5044610F0030F08BF11F0A6
:1036E000030F40F015804FF0013E121FC0F20E8014
:1036F00051F8043BA3EB0E0C2CEA030C1CEACE1C85
:1037000008BF40F8043BF0D0A1F1040102F104022B
:10371000521E08DB11F8013B002B00F8013BF7D1EA
:10372000114600F005F8204610BD704770477047FD
:103730004FF000020429C0F0128010F0030C00F0DA
:103740001B80CCF1040CBCF1020F18BF00F8012B58
:10375000A8BF20F8022BA1EB0C0100F00DB85FEA26
:10376000C17C24BF00F8012B00F8012B48BF00F8F2
:10377000012B70474FF0000200B513469446964661
:10378000203922BFA0E80C50A0E80C50B1F1200174
:10379000BFF4F7AF090728BFA0E80C5048BF0CC022
:1037A0005DF804EB890028BF40F8042B08BF704780
:1037B00048BF20F8022B11F0804F18BF00F8012BF2
:1037C0007047754600F028F8AE4605006946534636
:1037D00020F00700854618B020B5FEF7EFF8BDE8E9
:1037E00020404FF000064FF000074FF000084FF068
:1037F000000B21F00701AC46ACE8C009ACE8C009F9
:10380000ACE8C009ACE8C0098D4670470446AFF388
:1038100000802046FCF7D3FC00487047C801002018
:1038200001491820ABBEFEE72600020070470000E9
:1038300090EA010F48BF81F0004100F12482421A52
:103840003CBF801A89184FEAD0524FF07F4C1CEAD7
:10385000410FA2EBD15318BF9CEA026F00F03B80EE
:103860004FF0004C4CEA00204CEA012121FA03FC05
:1038700010EB0C0C1ED202F1FF325FEA1C2040EB71
:10388000C25038BF70471CF07F0F4FEA400C18BF82
:10389000BCF17F4F38BF7047C3F12003994008BF88
:1038A00020F00100BCF17F4F38BF7047A0F1C0404D
:1038B00000F0DDB94FEA3C00000A40EBC25028BFDF
:1038C0001CF0FF0F4FEA400CE6D018BFBCF17F4F51
:1038D00038BF7047EAE79CEA026F05D010EA5C0F38
:1038E00008BF00F00040704710B500F07AF900BF43
:1038F00064FBBE3E4FF47F0C1CEAD0121EBF1CEAD4
:10390000D11392EA0C0F93EA0C0F00F0858090EA35
:10391000010F48BF42F4807240F4000C41F40000F3
:103920002CF07F4120F07F4000B58142A2EB0302E2
:103930000FF2081CACEB504EC0F100009EF800E006
:103940004FEA4E0E00FB0EFC38BF49004FEA2C1C1C
:1039500002F5FA020CFB0EF34FEACE1E4FEA112CD1
:103960004FEAC1210EEB635E42EB22420EFB0CFCE0
:103970004FEA1C5300FB03114FEA112C4FEA0131AF
:103980000EFB0CFC4FEADC4C00FB0C11C14228BFC3
:1039900009184CEB03335DF804EB10EB410143EBEA
:1039A000C250B2F57C0F38BF704729D512F0F00F26
:1039B0001CBF00F1C04000F00040704700818283CE
:1039C0008485868788898B8C8D8E8F91929395962E
:1039D00097999A9C9D9FA0A2A3A5A7A8AAACAEB0B8
:1039E000B2B3B5B7B9BCBEC0C2C5C7C9CCCED1D4BD
:1039F000D7D9DCDFE2E6E9ECF0F3F7FAFE000000ED
:103A00004FEA400C0CF1807CBCF17E4F28BF704720
:103A1000B0F1C04000F02BB990EA010F0CEAD113CD
:103A200048BF42F48072624538BF634507D213F441
:103A30007F0F16D080EA010000F00040704710B5FB
:103A400000F0CFF8097EFC3E00F005B880EA0100E6
:103A500000F00040704780EA010000F0004000F0F4
:103A600006B912F47F0F04BF0248704780EA0100D4
:103A700000F0FDB80000C07FC10DD1F19E0206DB51
:103A80004FEA002343F0004323FA02F0704700425C
:103A900007D54FEA4001B1F1FE4F02D24FF00000CE
:103AA000704710B500F09DF84992248000207047BF
:103AB0006FEA200070470000B0FA80F310FA03F2BA
:103AC000C3F19D030AD0D90501EB1220530638BF7C
:103AD000704700F1010008BF20F0010070470000AE
:103AE0004FF47F0C1CEAD0121EBF1CEAD11392EADD
:103AF0000C0F93EA0C0F00F0478090EA010F48BFCB
:103B000042F480724FF0004C4CEA00204CEA012154
:103B100002EB0302A0FB0113A2F50002002918BF6B
:103B200043F001035B0028BF4FEA330342EB22421C
:103B30005FEA132C4CEBC2502EBFBCEB436FB2F5C7
:103B40007C0F70474FEA036CBCF1004F08BF20F0B8
:103B50000100B2F57C0F38BF70470BD582F0FF0231
:103B600012F5803FC8BF704700F1C040D8BF00F0D9
:103B70000040704700F5000C5FEA4C0C48BF7047EE
:103B8000B0F1C04000F073B890EA010F0CEAD11315
:103B900048BF42F48072624538BF634504D280EA70
:103BA000010000F00040704710B500F01AF800BFA7
:103BB0008900013E00F007B800F009B85FEA410C47
:103BC0005FEA1C6C08D080EA010000F050B85FEAA0
:103BD000400C5FEA1C6CF6D14FF00040A0F580006D
:103BE00070470EF1020E2EF0030E5EF8044B2442D5
:103BF00004D44FEA4102B2F17F4F11D84FEA40039B
:103C0000B3F17F4F0CD80ED14FEAD07CB2F17F4F89
:103C10000CEB4C0C0CF1020C08BF4CEBD17C04E01B
:103C20004FF0080C01E04FEAD17C0CEB4C0324FA76
:103C300003F404F00704B4F1040C06D20EEB840C78
:103C4000BDE810404CF0010C6047DFE80CF00708BD
:103C500002024FF00040A0F5800010BD084642006F
:103C600018BFD2F1807288BF00F0004010BDFF2164
:103C700041EAD050C005704790EA010F48BF81F07B
:103C800000413FF5DCAD421A04D882F00042A0EBBF
:103C9000020011444FEAD0524FF07F4C1CEA410F12
:103CA000A2EBD15318BF9CEA026F4AD04FF0004CF0
:103CB0004CEA00204CEA012121FA03FCB0EB0C0C89
:103CC0000FD412F0FE0F36D05FEA4C001DD5001263
:103CD00040EBC25038BF70471CF03F0F18BF704711
:103CE0000BE0A2F101025FEA1C2040EBC25038BF9A
:103CF00070471CF07F0F18BF7047C3F12003994035
:103D000014BF401E20F00100704780084FEA1223C4
:103D100008BF7047B0FA80FCA2EB0C02CCF1280C73
:103D200060FA0CF093EA122F04BF00EBC250704708
:103D30004FEAC3707047130A5FEADC1008BF704790
:103D4000F6E79CEA026F04D010EA5C0F08BF00207F
:103D5000704710B5FFF745FF40DFF63E81F00040A9
:103D600070470003030601040602050003051F1C3B
:103D70001F1E1F1E1F1F1E1F1E1F04AE530A574863
:103D80005526BD0D26500D954446AAB9056A4D0924
:103D9000AD4224AEB604AE4A6A4DBE0A4D520D2560
:103DA000465D52BA0B544E0D6A43296D37095B4B81
:103DB000749BC10497540A4B485B25BC06A550066A
:103DC000D4454ADAB802B64D0957422497B704974A
:103DD0004A664B3E0D4A510EA54656D4BA05AD4E25
:103DE00002B644393738092E4B7C96BF0C95530DDB
:103DF0004A486DA53B0B554F056A454AADB9025D72
:103E00004D092D422C95B60A954A7B4ABD06CA51EA
:103E10000B5546555ABB04DA4E0A5B43352BB805A1
:103E20002B4C8A953F0E955206AA487AD53C0AB586
:103E30004F04B6454A57390A574D0526423E933539
:103E40000D954975AABE056A51096D4654AEBB046D
:103E5000AD4F0A4D434D26B70D254B8D52BF0B5428
:103E6000520B6A47696D3C095B50049B454A4BB94C
:103E70000A4B4DAB25C206A55406D4496ADA3D0A61
:103E8000B6510937465497BB04974F064B4436A5A5
:103E9000370EA54A86B2BF05AC530AB6475936BCA1
:103EA000092E500C96454D4AB80D4A4C0DA541259A
:103EB000AAB6056A497AADBD025D52092D475C95E7
:103EC000BA0A954E0B4A434B55370AD54A955ABF05
:103ED00004BA530A5B48652BBC052B500A9345472F
:103EE0004AB906AA4C0AD54124DAB604B64A69573B
:103EF0003D0A4E510D26465E933A0D534D05AA4399
:103F000036B537096D4BB4AEBF04AD530A4D486D9D
:103F100025BC0D254F0D52445DAA380B5A4C056D3A
:103F20004124ADB6049B4A7A4BBE0A4B510AA546C2
:103F30005B52BA06D24E0ADA42355B3709374B84F8
:103F400097C1049753064B4866A53C0EA54F06B291
:103F5000444AB6380AAE4C092E423C97350C964975
:103F60007D4ABD0D4A510DA54555AABA056A4E0AAE
:103F70006D43452EB7052D4B8A95BF0A95530B4AC5
:103F8000476B553B0AD54F055A454A5D380A5B4C8D
:103F9000052B423A93B60693497729BD06AA510AE2
:103FA000D54654DABA04B64E0A57434527380D268B
:103FB0004A8E933E0D52520DAA4766B53B056D4F92
:103FC00004AE454A4EB90A4D4C0D15412D92B5002F
:103FD0001F3B5A7897B5D4F3110130014E0100030D
:103FE00003060104060205000305BCD700D2D20077
:103FF000B1FB00B6A100CEEC00BCBA00B8FD00D009
:10400000C100C8C900B9EF00D7D300B3F300D2FA9A
:1040100000C3AE00B3BD00CBC800CEE700CEB400F5
:10402000C9EA00D3CF00D0E700BAA500D2BB00B6E2
:10403000FE00C8FD00CBC400CEE500C1F900C6DF1C
:1040400000B0CB00BEC500CAAE00B6AC00C0B00028
:10405000B3F500CAAE00D8A500C8FD004EA6999CD5
:10406000A2988000180010244EA6999CA2988082E5
:10407000180010244EA6D99EA29880821800100421
:104080004EE6D99EA6A88082180010000FE6D9BE81
:10409000A6988882188000000FEFD9BEA6998C825E
:1040A000988000000FEFDBBEA6999CA298800018B4
:1040B0000FEFDBBEA6999CA2988000180FEFDBBE25
:1040C000A2998CA0988082180BEFDBBEA6998CA2D7
:1040D000988082180FEFDBBEE6D99EA298808218E6
:1040E0000FEFFBBFE6D99EA6988082180FFFFFFC5A
:1040F000EFD9BEA6180614041306150514061506F6
:1041000015071708170817081808160716D0A1BAB8
:10411000AE00B4F3BAAE00C1A2B4BA00D3EACBAEDB
:1041200000BEAAD5DD00B4BAB7D600C7E5C3F70014
:10413000B9C8D3EA00C1A2CFC400CFC4C2FA00C339
:10414000A2D6D600CFC4D6C100D0A1CAEE00B4F327
:10415000CAEE00C1A2C7EF00B4A6CAEE00B0D7C233
:10416000B600C7EFB7D600BAAEC2B600CBAABDB58F
:1041700000C1A2B6AC00D0A1D1A900B4F3D1A9006E
:10418000B6ACD6C1001F1C1F1E1F1E1F1F1E1F1EE8
:104190001FCAF300C5A300BBA200CDC300C1FA0033
:1041A000C9DF00C2ED00D1F200BAEF00BCA600B931
:1041B000B700D6ED00000000D84100080000002044
:1041C000440000006C0100081C420008440000206C
:1041D000E40700008801000800A24A040000000073
:1041E00000000000010203040607080900000000A7
:1041F00000000000000000000000000000000000BF
:1042000000000000000000000000010203040102A1
:0C42100003040607080902040608000069
:0400000508000131BD
:00000001FF
